:400000000080002011000000110900001109000008B5044B1A6803F53F5302331A6000F097FC00BFFA46004010B5054C237833B9044B13B10448AFF300800123237010BDB0
:400040008889FF1F00000000B86A0000084B10B51BB108490848AFF300800848036803B910BD074B002BFBD0BDE81040184700BF000000008C89FF1FB86A0000C880FF1F2E
:400080000000000038B50C4615460146204601F0CDFE80B10A49204601F0C8FE10B10120287038BD0749204601F0C0FE28B100232B70012038BD002038BD002038BD00BF32
:4000C000C86A0000CC6A000010B500F033FD78B10F4B1A78DAB91C4659689B686068A060C91A04F10C0000F03DFA0123237010BD074B1A785AB11C4659689B686068A060B1
:40010000C91A04F10C0000F02DFA0023237010BDA489FF1F08B5034A536801335360FFF7D3FF08BDA489FF1FF8B504460D4689B93C4B5B6D73B103EB83035A00824209D206
:40014000384E282206F1580001F010FB0023736586F88030334B93F8803013B91DB1012302E0012300E000232E4A82F88030002B56D0134692F881104A1CD2B283F881204E
:4001800003EB81039C65092A03D90022254B83F88120002308E0234A02EB8302926D12B1944200D914460133092BF4DD00252E462B460DE061081B4A02EB8302926D601A71
:4001C000824204D921448A4201D2164401350133092BEFDD06EB8606730005EB85010B444900B3FBF1F100273B460EE001EB410448080C4A02EB8302926D261AB24203D91A
:400200002044824200D201370133092BEEDD012D03DD012F01DD034B5965024B586DF8BD0020F8BDA489FF1F70B50646002408E0074901EBC4010131304601F08FFB28B1D0
:400240000134034B13F83450002DF1D1284670BD486B000010B5104B1C68A2689368013B9360002B05DA91698B4207DBC3B20A2B04D01368591C1160187003E001462046AD
:4002800003F0DEFA054B1B7823B1034B1B68986800F02AFD10BD00BF1085FF1FCC80FF1F19B3C2EB0212264BA3FB0232B0EBD20F0DD2244B93F88230072B15D8214A591C55
:4002C00082F882101344012283F8842070471D4B93F88230072B07D81A4A591C82F882101344032283F88420704770B514460546B0EB420F12D9134890F882300344002216
:4003000083F884208430FFF78FFF064608B1FFF7A1FF00220B4B83F8822000E000266EB104EB8402954209D9B5F1FF3F03D10A20FFF790FF70BD2020FFF78CFF70BD00BFA2
:40034000CDCCCCCCA489FF1F08B54FF47A71B1FBF0F1024801F05CFA08BD00BFD46A000010B500F08BFB002866D003460D2801D00A2830D1314A32493248FFF783FE48B13B
:40038000314B5B780BB1314900E03149314801F03FFA19E02C4A2A492F48FFF773FE48B1294B1B780BB1294900E029492B4801F02FFA09E02A49224801F038FD20B1294BBD
:4003C000D3F8D000FFF7C0FF264B002283F89020C3F8D42010BD7F2809D1224BD3F8D430002B22DD013B1F4AC2F8D4301DE01E4A12681118497811F0080F00D02023194CD0
:40040000D4F8D410481CC4F8D4001A44527802F00302022A00D1203B124A0A4482F890303F2802DD0F4BC3F8D4100E4AD2F8D4301344002283F8902010BD00BFCD80FF1FBD
:40044000348AFF1FEC6A0000CC80FF1FE46A0000E86A0000F46A00000C6B0000146B0000306B0000A489FF1FE480FF1F70B594B04822002102A801F079F900F0F1FA642024
:4004800000F02EFB30490F2000F040FB2F4B45F6BF525A60E0212E4A82F8231000259D6007221A6062B62B4801F0FAF92C462E460DF1030201A9284800F078F858B39DF873
:4004C00003100198FFF730FE04469DF80320019902A800F047F84DB944B1204B5B7813B12046FFF731FF1E4BC3F8D04034B90DE022469DF803100198FFF7D2FE0DF10302AE
:4005000001A902A800F052F80028F1D1144B5E682546012414E09CB1114B5B689B1B7DB1B3EBC50F0CD92A4600214FF0FF30FFF7B7FE00214FF0FF30FFF7F6FD00252C463A
:40054000FFF70EFFB4E700BF1501000010E000E000ED00E0346B0000B089FF1FCC80FF1FA489FF1FB1F5004F01D289B201E047F6FF710AB141F40041037801330A4A1340A8
:4005800003D5013B63F01F030133DBB24278D2B2934205D0027800EB4202518003707047436C0133436470471F00008010B40478E4B24378DBB29C421FD0437800EB4303AE
:4005C0005B889BB20B60437801330D4C234003D5013B63F01F030133DBB243700B6813F4004F06D0012010700B6883F400430B6004E000231370012000E0002010BC7047B2
:400600001F000080F8B50C46174600250BE023780A2B02D10D2000F047FA661C207800F043FA01353446BD42F1DB3846F8BD00BFF8B50F461546002651E000F01FFA0446F3
:4006400050B300F031FA0D2C03D10A2000F02CFA0A247F2C0BD1244B1B68EBB1224A013B13605368013B03F07F03536014E01E4A5368D1180C72013303F07F03536013683D
:40068000013313600A2C01D07F2B05D9164AD2F888300133C2F88830134BD3F88830F3B1114A1268BAB11048D0F88C100844007A0A2803D1013B0C4CC4F88830387001314D
:4006C00001F07F01084BC3F88C10013A1A600136013D013703E00022034BC3F88820002DABDC3046F8BD00BF7C8AFF1FFEE700BFF0B40022174611E050F82760F3B226F0C3
:40070000FF0608E001EB420511F812406D78A5550132013BDBB2002BF4D10137082FEBD9F0BC7047064B1B78DBB203F00701054A11701B09013213704422034B1A707047D2
:40074000CF0100496E5800407658004008B50A46002101F00BF808BD38B51925234B1D80182202331A70022203F27E231A7008224FF040231A70032103F5007319701C4B1D
:400780001B78DBB21B490B701B4B1A8041F25122023B1A8000240CE0184B1B7803F0010343EA440404F003044FF4F07000F0CCF9013D0DB1032CEFD115B90320FFF796FF91
:4007C0000F4B4FF480721A8007221A7000220D490A704820023108701A700222033B1A70094A137843F00103137038BD8040004008010049A1460040224200402542004051
:400800000440004006400040A243004008B500F037FF08BD38B572B6304A137843F00403137000240CE02E4D630019194A0011462A44084691882858FFF788FF0134E4B2AC
:40084000082CF0D900240BE02549A3001819420088188022C16B806BFFF7D8FF0134E4B2002CF1D01F494FF09040FFF741FF1E4A137843F0020313701032137843F00203AA
:4008800013701A4C237843F040032370A2F58632513A137843F0100313700A2214491548FFF7B4FF082214491448FFF7AFFF144A137843F008031370124D61232B70FFF749
:4008C0004BFF81232B7001220F4B1A70FFF72AFF0E2221460D48FFF799FF38BDE8460040706C00002400004803500140A0430040D0020048C0510040DC0200481251004039
:40090000224300400048004004000840B043004008B500F029F903680C2B00D1FEE7FEE708B5094B1A681044084BC31AB3F5006F02DC054B186005E000F016F90C230360B5
:400940004FF0FF32104608BDD080FF1F488BFF1F08B5104E104D16E029686B68AC68002204E051F8040B43F8040B0432A242F8D1E868002203E0002143F8041B0432824252
:40098000F9D11035013E002EE6D100F0A5FBFFF76DFDFEE701000000646F000008B5104A104B1A60104A136843F40073136000230AE0032B03D80D4A52F8231000E00C495E
:4009C0000C4A42F8231001332F2BF2D90A4B1A780A4B1A70074A0A4B1A60FFF71BFF08BD0004FA050CED00E014ED00E000000000110900000080FF1FBC760040C080FF1FDB
:400A000008ED00E07222074B1A70202201331A7006225F3B1A70472210331A70002251331A7070478865004010B500F095F804460A4A137843F0200313700132137843F0A6
:400A4000100313700232137843F01003137000F037F8204600F084F810BD00BF9865004008B5054B1B7823B9FFF7CCFF0122024B1A70FFF7D9FF08BD0C8BFF1F084B1B7839
:400A8000DBB213F0200F06D0064A1078C0B213F01E0F02D17047002070470020704700BF6965004048650040034B1B7813F0040FFAD1024B187070476B6500404B650040E7
:400AC000054A137843F0010313701032137843F001031370704700BFA243004001BE704710B5044605E0084B186800F02DF8A4F50044B4F5004FF6D8034B586800FB04F04E
:400B000000F022F810BD00BFD480FF1F70B504460E46074B1D680F2802D90020FFF7DEFF04F00F0455F8240045F8246070BD00BF08ED00E0024B1878C0F30010704700BFFE
:400B4000C1510040000000000230800803D000BF01380046FCD17047EFF3108072B6704780F31088704700BF014B1868704700BF1085FF1FB1F90C302DE9F0419AB20D4641
:400B8000110780463CD46A6843F40063002AAB8173DDAC6A002C4BD09BB203F48052002192B2D8F80060C8F80010002A69D02A6D5F0705D569682B6B521A0BB1EB6BD21A52
:400BC0000023E9694046A047441C3CD0B5F90C30296923F400630022AB81DB0485E8060049D4296BC8F8006011B305F14003994202D0404600F060F900202863BDE8F08106
:400C00002E69AEB190072C680CBF6B6900232E60A41BAB600AE0234632466F6AE9694046B8470028A4EB0004064404DD002CF2DC0020BDE8F081AB894FF0FF3043F04003D0
:400C4000AB81BDE8F081D8F800201D2AF3D81A4BD34003F0010383F00104002BEBD0B5F90C30296923F400632960D9046C60AB81B7D5002AB5D12865B3E7EA6B002A88DCC9
:400C8000D6E70123E9694046A047431C024602D0AB89AC6A8CE7D8F80030002BF8D01D2B01D0162B02D1C8F80060C1E7AB8943F04003AB81BDE8F0810100402010B504461A
:400CC00082B008B1836B53B1B1F90C0008B902B010BD204602B0BDE81040FFF74BBF019100F092F80199EFE720B1054B01461868FFF7E4BF034B0449186800F0C5B900BFCF
:400D00001085FF1FBC6D0000BD0C0000014900F0BBB900BF9D4900002DE9F04F074635487D68002407F53B7204230321F863C7F8E412C7F8E822C7F8E04283B02C606C605A
:400D4000AC606C66EC812C616C61AC61AB81214605F15C00082200F009FDDFF89CB0BE68DFF898A0DFF89890DFF8988001230922C5F820B0C5F824A0C5F82890C5F82C803B
:400D8000ED612146F381B28106F15C0034607460B460746634617461B4610822019300F0E5FCFD6812200222F661C6F820B0C6F824A0C6F82890C6F82C802146A881EA8123
:400DC0002C606C60AC606C662C616C61AC6105F15C00082200F0CAFC019BED61C5F820B0C5F824A0C5F82890C5F82C80BB6303B0BDE8F08F0D0D0000D5180000F918000041
:400E00003519000055190000836B03B17047FFF783BF00BF704700BF704700BFF8B50C46224F064600F0F0FCBB685D6825F00305291B01F6EF7121F47F6121F00F01A1F5D6
:400E40008054B4F5805F07DB0021304600F030FDBB682B44984204D0304600F0D7FC0020F8BD6142304600F023FD01300DD0104BBA6819682D1B45F001053046091B55602B
:400E8000196000F0C3FC0120F8BD0021304600F00FFDBA68831A0F2BDEDD064C0449246843F00103001B53600860D5E71485FF1F1C8BFF1F2089FF1F002945D02DE9F041D1
:400EC0000D46804600F0A0FC55F8047C6A49A5F1080427F00103E2188E685068B24220F0030062D0FE0750600BD455F8087C01F1080EE41BA5683B4475456FD0E768EF60A0
:400F0000BD6015186D68ED0742D543F001026260E350B3F5007F18D2DB0848689D100122013351F8337002FA05F501EBC3022843083AE260A760486041F83340FC604046F5
:400F4000BDE8F04100F062BC70475A0A042A53D89A0902F139077F0002F1380501EB870051F827200838904243494DD0516821F003018B4202D292689042F7D1D068E0605B
:400F8000A2608460D4604046BDE8F04100F03EBC95683A4F0344BD423FD0D06843F00102E86085606260E350B3E7FF07034407D455F8085C641BE268A0682B44C2609060A1
:400FC0002F4A43F001001268606093428C60B6D32C4B40461968FFF721FFB0E711184968C90744D491680344D26843F00100CA6091606060E350A2E7142A17D802F15C070B
:401000007F0002F15B05A9E7AA104B68012505FA02F213434B600246B1E743F001024C610C61E560A5606260E35088E7542A06D81A0B02F16F077F0002F16E058EE7B2F5FE
:40104000AA7F06D8DA0B02F178077F0002F1770584E740F25450824206D89A0C02F17D077F0002F17C0579E7FE277E2576E743F001026260E35062E71485FF1F1C85FF1FC2
:401080001C89FF1F188BFF1F2DE9F84310F538761ED0884607464FF000097568B468013D10D4A389013D012B08D9B4F90E30013304D021463846C04749EA00096B1C04F12E
:4010C0006804EED13668002EE7D14846BDE8F883B1464846BDE8F88370B50F4E0F4D761BB61018BF002405D0013455F8043B9847A642F9D10A4E0B4D05F020FF761BB6107C
:4011000018BF002406D0013455F8043B9847A642F9D170BD70BD00BF486F0000486F0000546F0000486F00002DE9F04F01F10B05162D83B0064640F2A08035F0070500F1FE
:40114000C080A94200F2BD8000F05EFBB5F5FC7FC0F090826B0A00F0BB80042B00F27781A80900F1390E4FEA4E013830BE4F07EB81014C680839A14207D1AEE0002A80F2F8
:40118000AE80E468A14200F0A880636823F003035A1B0F2AF2DDB4493C6901F1080E744500F0A881636823F003035A1B0F2A00F38E81002AC1F814E0C1F810E080F2938044
:4011C000B3F5007F80F05C81DB084A684FEAA3094FF0010C013351F833800CFA09F901EBC30C49EA0202ACF1080CC4F80CC0C4F808804A6041F83340C8F80C4083100124F4
:401200009C4094427CD8144206D120F003006400144200F10400FAD007EBC009CC468046DCF80C108C4507D166E1002A80F27481C9688C4500F060814B6823F003035A1BD7
:401240000F2AF2DD0C46CB6854F808CF45F00108C1F804800D4442F00101CCF80C303046C3F808C07D613D61C5F80CE0C5F808E06960AA5000F0CAFA1FE0102921D800F063
:40128000C3FA102506230220774F07EB83035C68A3F10802944200F038816368E16823F0030323445A68A56842F00102E96030468D605A6000F0AAFA0834204603B0BDE846
:4012C000F08F002420460C23336003B0BDE8F08F80214FF0400E3F2048E770465BE723445A68E168DFE723445A68304642F001025A60083400F08AFA204603B0BDE8F08FE5
:40130000BC68636823F00308A84504D3C5EB08030F2B00F38C80554BDFF860911A68D9F800302A44013304EB080A00F0608102F580520F3222F47F6222F00F021146304698
:40134000019200F0B5FAB0F1FF3F8346019A00F05881824500F2FC80454BDA4519681144196000F05381D9F80000DFF810E101301BBFCAEB0B0A5144CEF800B019601BF03B
:40138000070100F01781C1F10800C1F58051834408315A44C2F30B02C2EB010949463046019300F085FA431C019B00F03F81CBEB00024A4442F001021968BC424944C7F84C
:4013C00008B01960CBF80420DFF8A49016D0B8F10F0F40F2FD806268A8F10C0323F0070302F00102E0184FF0050E1A430F2B6260C0F804E0C0F808E000F21C811D4BBC68F0
:401400001A68914288BF19601B4B1A689142626888BF196022F003029542A2EB050301D80F2B04DC304600F0F1F9002445E745F0010243F00103254462603046BD600834D3
:401440006B6000F0E3F9204603B0BDE8F08F142B71D9542B00F2A480280B00F16F0E4FEA4E016E3082E600BF1485FF1F188BFF1F1C8BFF1F148BFF1F108BFF1F2089FF1F12
:401480005A0A042A5ED9142A00F2B38002F15C0149005B3207EB810C57F82110ACF1080C8C45DFF8D88100F088804A6822F00302934202D289688C45F7D1D1F80CC07A68BE
:4014C000C4F80CC0A160CCF80840CC6096E645F0010742F001032544676030464D610D61C5F80CE0C5F808E06B60AA50083400F08DF9E2E64A6881E608F1010818F0030FB8
:401500000CF1080C7FF48CAE30E0DC68A34208BF02303FF440AEC0E60C460B445A68C96854F8085F42F001025A603046E9608D6000F06CF9C1E603F15C0E03F15B004FEA30
:401540004E0113E69A0902F1390149003832A1E7BC424A4B3FF400AF9C68626822F003025AE759F80839994540F0828010F0030F00F1FF30F5D17B6823EA04037B606400AD
:401580009C423FF6BDAE002C3FF4BAAE1C4240467FF442AE64001C4200F10400FAD03BE6B3F5AA7F18D8E80B00F1780E4FEA4E017730DBE54FF48051EBE60121D8F80430D8
:4015C000921001FA02F21A43C8F80420614677E70123CBF8043025E740F25452934220D8A80C00F17D0E4FEA4E017C30BEE51032A4E6542A26D81A0B02F16F0149006E3288
:4016000048E7BC68626822F0030205E7CAF30B0000287FF4A8AE4244BB6842F001025A60ECE6FE214FF07F0E7E209FE501224FF00009C1E604F108013046FFF73DFCD9F8D4
:401640000010DBE6B2F5AA7F05D8DA0B02F17801490077321EE740F254518A4205D89A0C02F17D0149007C3214E7FE217E2211E77B6884E7E808431C5B0005E61485FF1FCA
:40168000844641EA000313F0030349D1403A23D30B6803604B6843608B688360CB68C3600B6903614B6943618B698361CB69C3610B6A03624B6A43628B6A8362CB6AC3627F
:4016C0000B6B03634B6B43638B6B8363CB6BC36340304031403ADBD230320BD30B6803604B6843608B688360CB68C36010301031103AF3D20C3205D351F8043B40F8043B35
:40170000043AF9D2043208D0D2071CBF11F8013B00F8013B01D30B8803806046704700BF082A13D38B07B1D010F00303AED0C3F10403D21ADB071CBF11F8013B00F8013BD3
:40174000A4D331F8023B20F8023B9FE7043AD9D3013A11F8013B00F8013BF9D20B7803704B7843708B7883706046704770B4840746D0541E002A41D0CDB2034602E0621EED
:40178000E4B3144603F8015B9A07F8D1032C2ED9CDB245EA05250F2C45EA054519D9264603F11002103E0F2E42F8105C42F80C5C42F8085C42F8045C02F11002F2D8A4F1E2
:4017C000100222F00F0204F00F041032032C13440DD91E462246043A032A46F8045BFAD8221F22F003020432134404F003042CB1C9B21C4403F8011BA342FBD170BC704716
:4018000014460346C2E700BF704700BF704700BF0FB410B5074B82B004AC54F8042B186823468168019400F011FC02B0BDE8104004B070471085FF1FF0B5054689B00846DA
:401840000C4600F069F9431C144F0393AB6B012604A9022204940590AC680697079601910292B3B1B4F90C309A0406D4626E43F4005322F40052A38162662146284601AACA
:4018800003F0E2F8002814BF4FF0FF300A2009B0F0BD2846FFF7B8FAE4E700BFE06A0000024B01461868FFF7C7BF00BF1085FF1F38B5074C0023054608462360FFF730F8D9
:4018C000431C00D038BD2368002BFBD02B6038BD448BFF1F10B50C46B1F90E1003F0C2FE002803DB236D0344236510BDA38923F48053A38110BD00BF2DE9F0410C46B1F909
:401900000C101F46CB051646054607D5B4F90E100223002203F02AFAB4F90C1021F48051A1813B463246B4F90E102846BDE8F04101F0DCBF10B50C46B1F90E1003F016FA63
:40194000A389421C0EBF23F4805343F480532065A38110BDB1F90E1002F052B880EA010C1CF0030F37D110F0030C20F0030021F0030150F8042B08BF51F8043B0ED08CF0EE
:40198000030C6FF07F434FEACC0C23FA0CFC51F8043B42EA0C0243EA0C0300BFA2F1013C9A4201BF2CEA020C1CF0803F50F8042B51F8043BF2D04FEA02604FEA12220128B7
:4019C00028BFB0EB036F08BF1B0AF4D003F0FF03000EC01A704710F0030F0AD010F8012B11F8013B012A28BF9A42F4D0A2EB030070474DF8045D50F8042B01F0030521F02A
:401A0000030151F8043B022D26D04DD822F07F45B5EB132FA2F1013C2CEA020C0DD11CF0803C08BF51F8043B0AD185EA0205B5EB036F0CD150F8042BE8E74FEA13235BE0FF
:401A40003CF07F4C54D10B784FEA126554E04FEA126503F0FF034FE04FEA0245A2F1013C4FEA15452CEA020CB5EB134F18D11CF0803C08BF51F8043B07D185EA0205B5EB18
:401A8000034F09D150F8042BE6E75FEA0C4C2FD10B884FEA12452FE04FEA03434FEA12454FEA134328E000BF02F0FF05B5EB136FA2F1013C2CEA020C0DD11CF0803C08BF05
:401AC00051F8043B0AD185EA0205B5EB032F0AD150F8042BE8E74FEA13630DE012F0FF0F06D051F8043B4FEA122523F07F4303E04FF0000020BC704705F0FF0203F0FF002E
:401B0000012828BF904204BF2D0A1B0AF4D0A2EB000020BC704700BF20F0030110F00300C0F1000051F8043B00F1040C4FEACC0C6FF000021CBF22FA0CF213434FF0010CA7
:401B40004CEA0C2C4CEA0C4CA3EB0C0222EA030212EACC1204BF51F8043B0430F4D0C2F1000102EA0102B2FA82F2C2F11F0200EBD20070472DE9F0414FF0010E7446002520
:401B80004FF0FF362B198B4200EB06070DD23F5D10F803C0BC452DD21D460124C6EB030E2B198B4200EB0607F1D34FF001084446C2F800E000254FF0FF372B19994200EB3B
:401BC000070E0ED91EF804E010F803C0F44518D91D460124C7EB03082B19994200EB070EF0D80137701C874224BF3846C2F80080BDE8F0810CD04FF0010E2E46744675447F
:401C0000C0E70CD04FF001082F4644464544D4E7744509BFA64601341D460124B2E7444509BFA04601341D460124C6E72DE9F04FADF2144D164605468B461046194603AA03
:401C40001C46FFF797FF814603AB0DF20C4243F8044F9342FBD14CB13246631E04A812F8011B40F8213013F1FF33F8D203994A463144304603F04AF9002871D109F1FF3351
:401C80000093F3188246019323468046544658469A4608EB0A073A1A0021284403F0F0F8002858D1002F56D0EB1913F8012C04AB53F822304BB124B1039A934201D2C2EB32
:401CC0000A03984400243846E3E74C45234638BF4B460AF1FF3E734513D208EB0302A85C16F803C02A44844506EB030106D02EE011F801CF12F8010F844528D101337345BA
:401D0000F6D34C45009980F08B80009B019808EB0302AB5C00782A44984240F08180019B06EB040B06E013F801ED12F8010D864504D161469B4501F1FF3CF4D101348C4262
:401D400070D8039C3846A044C4EB0A04A1E7C9F101029044B5E700200DF2144DBDE8F08FC9EB04034B4538BF4B4609F1FF380133039306EB08035846CB4699464FF0000A63
:401D80000AEB04073A1A0021284403F079F80028E1D1002FDFD0EB1913F8012C04AB53F82230A3BB601E834515D20AEB0B0215F802E016F80B302A449E4506EB0B015B46EA
:401DC00006D027E011F801CF12F801EFF44521D101338342F6D3B8F1FF3F11D00AEB0802AB5C99F800102A4499420FD14B4605E013F8010D12F8011D884207D1B342F7D198
:401E000005EB0A000DF2144DBDE8F08F039B9A443846B5E7CBF1010292449A443846AFE749468BE705EB080096E700BF0378002B00F004812DE9F04F91F8008085B044469A
:401E4000B8F1000F16D0864601F1010C012704E0624612F8014B64B194469C4214BF002707F001071EF8013F002BF1D19CF800300BBB17B105B0BDE8F08F0E460546414695
:401E80000130C6EB0C0403F0EDFD074698B1012CF0D02819874294BFC7EB000B4FF0010B1F2C0CD92346324659463846FFF7BEFE05B0BDE8F08F002005B0BDE8F08F03AA0C
:401EC00021463046FFF756FE0399804602463144304603F01BF8002858D181460546B246584608F1FF330193F31800936619321A0021384402F0C4FF0028DCD1002EDAD000
:401F0000C845434638BF4B469C4212D95A19B85C1AF803103A4488420AEB030E06D02DE01EF8010F12F8011F884227D101339C42F6D8019BC845194640F283800098EA1814
:401F4000BB5C00783A4498427BD1009B0AEB090B06E013F801CD12F801EDF44504D101465B4501F1FF30F4D109F10109894557D8039B30461D44C3EB0409B7E7C8F101026D
:401F800015441D444FF000093046AFE7C8EB0403434538BF434608F1FF390133039306EB090358469A46BB46002567193A1A0021584402F065FF00287FF47DAF002F3FF4A5
:401FC0007AAF444515D908EB05021BF8020016F808305A44984206EB0801434606D023E011F801EF12F8010F86451DD101339C42F6D8B9F1FF3F12D005EB09021BF8023062
:402000009AF800105A44994214D1534605E013F8010D12F8011D88420CD1B342F7D15F46781905B0BDE8F08FC8F1010215441D443846BAE7039B38461D44B6E70B7813B970
:402040007047414690E70020704700BF2DE9F04FC1B01C460891164605460A9002F082FE03680E9418461793FFF756FD16901DB1AB6B002B00F0BD830898B0F90C2093B2A4
:40208000990407D4416E42F4005321F40051838141669BB21A0740F1E482089A1269002A00F0DF8203F01A030A2B00F0E88200231A46B0460DF1C00ADFF85C9412931993CA
:4020C0000B9325932493CDF88CA01492159298F800304446EBB1252B02D11AE0252B03D014F8013F002BF9D1C8EB04058DB1249B259A01332A44072BCAF80080CAF804508A
:402100002592249300F330830AF1080A0B9B2B440B932378002B00F0EA814FF0FF3B5D4600231A468DF86F3019460C930793637804F1010808F10108A3F12000582800F24E
:402140004086DFE810F0DC053E063E06E5053E063E063E063E063E063E065900AA053E066600AA033E06C603CD03CD03CD03CD03CD03CD03CD03CD03CD033E063E063E065F
:402180003E063E063E063E063E063E063E06DD0357053E0657053E063E063E063E06A2053E063E06BC043E063E063E063E063E06E4043E063E0611053E063E063E063E067E
:4021C0003E063E063E063E063E063E0644058D0457055705570595048D043E063E069D043E06A8044A046D00B0053E06B8053E0621043E063E06ED050E9C236818460C9390
:402200002346002803F104030E9306DA0C9B5B420C93079B43F00403079398F8003089E7AB460E9A0027079830217823BB4514688DF8701002F104024FF000058DF87130D9
:402240008DF86F7040F00201C0F2D18520F0800141F00201079154EA05010E921193AC4800F0318130AE230943EA0573290904F00F020D461C46835C06F8013D54EA050348
:40228000F1D130AB9B1B0D930D9B5B45B8BF5B4609930023139317B1099B01330993079B13F002030F9302D0099B02330993079B13F08403109340F018810C9B099A9D1AFE
:4022C000002D40F31281102D2599249A914F27DD189650461024BA46089E2F460A9D04E0103F102F00F1080016DD0132894B1031072A2591249280E81800F1DD23AA31463F
:40230000284603F053FC002840F0F880103F102F30A82599249AE8DC3D4657468246189E01326C18072A25942492CAF80070CAF8045000F3D0809DF86F700AF1080A77B14E
:40234000249B013401330DF16F010122072B259424938AE8060000F31E820AF1080A0F9B6BB1249B023401331CA90222072B259424938AE8060000F31A820AF1080A109BB1
:40238000802B00F02A810D9BC3EB0B07002F33DD614A102F249B0F9222DD22464FF0100B0A9D089C04E0103F102F0AF1080A16DD01331032072B259224938AE8000AF2DD07
:4023C00023AA2146284603F0F1FB002840F09680103F102F0DF1C00A259A249BE8DC144601330F9A3C44072B259424938AE8840000F3C5810AF1080A079BDD0500F18E803E
:40240000249B0D9901330C44072B2594CAF80060CAF80410249300F3E0810AF1080A079B580736D50C9B099A9D1A002D31DD102D249B384F22DD22461026DDF828B0089CFF
:4024400004E0103D102D0AF1080A16DD013331491032072B259224938AE84200F1DD23AA2146584603F0A2FB002847D1103D102D0DF1C00A259A249BE8DC144601332C44A8
:40248000072B25942493CAF80070CAF8045000F38D840B9B0C9A09998A42ACBF9B185B180B93002C40F05781002324930DF1C00A0DE60027BB458DF86F70C0F2A284079B77
:4024C00023F080030793BBF1000F00F06784002400250027C6E623AA08990A9803F066FB60B99DF86F700DF1C00A259C27E7259B23B10A9823AA089903F058FB089B9B89C1
:40250000590600F10E870B9841B0BDE8F08F00BFF46D0000C06D0000146E0000119B652B40F3BB80149815990022002304F0A4F8002800F06781249BB04901330134012212
:40254000072B259424938AE8060000F38B860AF1080A1D9B129A934203DB079BD8077FF55EAF249B16990133179A0C44072B2594CAF80020CAF80410249300F32B870AF17A
:40258000080A129B5D1E002D7FF749AF9C4A102D249B0F9240F3178110260A9FDDF820B005E00AF1080A103D102D40F30C8101331034072B25942493CAF80090CAF80460A6
:4025C000EFDD23AA5946384603F0F0FA002895D10DF1C00A259C249BE5E70C9B099A9F1A002F7FF7D0AE864A102F249B0F922BDD52462146BA46102537460A9C089E06E026
:40260000AAF1100ABAF1100F02F1080218DD01331031072B25912493C2F800905560EFDD23AA3146204603F0C1FA00287FF466AFAAF1100ABAF1100F30AA2599249BE6DCAA
:402640003E460C465746924601330F9A3C44072B259424938AE8840000F3D6840AF1080A91E608990A9801F057F9002840F05986089B9B8903F01A030A2B7FF418AD0899A9
:40268000B1F90E30002BFFF612AD234632460A9801F0A0F841B0BDE8F08F129B249D012B04F1010405F1010540F35D840123072D2594CAF800602495CAF8043000F36E84C7
:4026C0000AF1080A169A0135179B1444072D25942495CAF80030CAF8042000F36D840AF1080A002314981599002203F0C5FF129B002800F02A835E1E002E40F33583404B86
:40270000102E0F9340F36984CDF834801027B046DDF828B0089E07E00AF1080AA8F11008B8F1100F40F3568401351034072D25942495CAF80090CAF80470EDDD23AA314670
:40274000584603F033FA00287FF4D8AE0DF1C00A259C249DE2E723AA08990A9803F026FA00283FF4A1AEC9E623AA08990A9803F01DFA00287FF4C2AE0DF1C00AC6E423AA87
:4027800008990A9803F012FA00287FF4B7AE0DF1C00A259C30E623AA08990A9803F006FA00287FF4ABAE0DF1C00A259CD7E523AA08990A9803F0FAF900287FF49FAE0DF120
:4027C000C00A259CDBE501330F9A2C44072B259424938AE824007FF720AE23AA08990A9803F0E4F900287FF489AE259C0DF1C00A15E60A98FEF708FB3EE400BF106E000096
:40280000146E00001D9D002D40F33B85139B129A9342A8BF1346002B1D460DDD249B2C440133072B2594CAF80060CAF80450249300F30E860AF1080A139B002DA8BF5B1B4C
:40284000002B1D4640F32D83C64A102D249B0F9240F3FB8422461027DDF828B0089C05E00AF1080A103D102D40F3EE8401331032072B25922493CAF80090CAF80470EFDD0D
:4028800023AA2146584603F091F900287FF436AE0DF1C00A259A249BE4E798F8003008F101042A2B00F04587A3F13000092898BF002500F2D78614F8013B05EB850500EBFD
:4028C0004505A3F130000928F5D945EAE575A04632E4079B43F08003079398F8003029E4A3F1300000231C4618F8013B04EB840400EB4404A3F130000928F5D90C941BE4E6
:402900001193AB46002A40F03B87079B43F010030793079B9F0640F18A820E9C073424F00704D4E9002304F108011D4614460E91002A73F10003C0F27483BBF1000F9DF818
:402940006F70C0F29482079B23F08003079354EA050338D0002D08BF0A2C39D330AE204629460A22002303F0F7FE303206F8012D2046294600230A2203F0EEFE04460D4642
:4029800054EA0503EBD17CE41193AB46002A40F0F386079A12F0200300F0C7800E9C0027073424F0070303F10801BB450E91D3E900458DF86F70C0F25A8222F08003079368
:4029C00054EA0503C6D1BBF1000F00F0E881002440AE303406F8414D53E41193AB46002A40F0C686079A12F0200375D00E9C0027073424F0070303F10801BB450E91D3E9E5
:402A000000458DF86F700BDB22F08003079354EA050306D1BBF1000F00F0048600240025002730AEE20842EA4572E90804F007030D461446303354EA050206F8013DF1D129
:402A4000079AD2077FF51DAC302B3FF41AAC3022731E06F8012C30AAD21A0D921E4613E41193AB46002A3FF454AF8DF86F1050E7079B43F04003079398F80030FFF75ABBD0
:402A800098F800306C2B00F09B84079840F010000790FFF74FBB002A40F08686079B9F0640F10E830E9A134604330E930B9B1168DD171A462B46C1E90023FFF708BB1193E4
:402AC000AB46002A40F06486079B43F010030793079A12F0200389D1079911F0100200F0B0820E98BBF1000F024604688DF86F3002F104024FF00005C0F2478521F08001A4
:402B0000079154EA05010E9284D01F4689E71193AB46002A40F03886079B43F010030793079A12F020037FF439AF079911F0100200F08A810E98BBF1000F024604688DF858
:402B40006F3002F104024FF00005C0F2218521F08001079154EA05010E921F467FF4FAAE31E700BF146E00001193AB46002A40F01786079BC0489C0640F1DC800E9C0734F0
:402B800024F0070303F108020E92D3E90045079A12F0010700F0398154EA05033FF489AC9DF8442000278DF87120079A3023BB458DF870308DF86F7042F00203C0F205852F
:402BC00022F0800343F002030793FFF74BBB0E9911930A68002301201F468DF86F309B4613930B1D09908DF898200E930D9026AEFFF755BB1193AB46002A40F0CD85079B68
:402C00000E9C1D0704F1070440F1148324F0070303F108020E921A685B6814921593159B149D23F00044284621464FF0FF32934B03F054FD002840F07582284621464FF02D
:402C4000FF328E4B03F02CFD002840F06B82149815990022002303F019FD002840F0AF849DF86F700799864E21F08001854B0791119903224FF0000B09924729D8BF1E46B5
:402C80000D92CDF84CB0FFF706BB079B43F00803079398F80030FFF74DBA98F8003001222B21FFF747BA079B43F02003079398F80030FFF73FBA0E9AAB461668002511937F
:402CC0008DF86F50141D002E00F05084BBF1000FC0F28D835A462946304602F0D1F8002800F09484AB46831B0D9323EAE3730E940993CDF84CB09DF86F70FFF7CCBA98F86F
:402D0000003000297FF416AA01222021FFF712BA079B43F00103079398F80030FFF70ABA1193AB46002A40F04685079B56489C063FF524AF079BD90640F1B5810E9A00259C
:402D40001346043314680E9321E7013B013501361C44072DCAF8006024952594CAF8043000F345810AF1080A199A013514441FAB072D25942495CAF80420CAF800307FF712
:402D80004CAB23AA08990A9802F010FF00287FF4B5AB0DF1C00A259CFFF741BB5F464FF0000BCDF834B030AEFFF76EBA23AA08990A9802F0FBFE00287FF4A0AB259CFFF769
:402DC00068BB1193002A40F0FA84119A002A3FF48EAB002301211F4609918DF898208DF86F309B4613930D9126AEFFF758BA26480791119354EA05030E924FF000077FF404
:402E000031AA00240025FFF72DBABBF1000F8DF86F70C0F2348222F08003079354EA05037FF420AABBF1000F7FF451ABB6E7079BDE0640F15C810E9A13461C680433E51745
:402E40000E9322462B4673E5079911F0400740F06C820E9ABBF1000F134614688DF86F7003F104034FF0000580F250810E9354EA05037FF46FADABE5E06D0000FFFFEF7F9D
:402E8000D46D0000D06D0000F46D000023AA08990A9802F08BFE00287FF430AB259C0DF1C00A139A1D9B32441746129A934249DB079AD20746D412990E44F51BCB1A9D4267
:402EC000A8BF1D46002D2E460DDD249A2C440132072A2594CAF80070CAF80450249200F330830AF1080A002EB4BF1D469D1B002D7FF795AA8A4A102D249B0F927FF763ACED
:402F000010260A9FDDF820B005E00AF1080A103D102D7FF758AC01331034072B25942493CAF80090CAF80460EFDD23AA5946384602F03CFE00287FF4E1AA0DF1C00A259CF4
:402F4000249BE4E7249A1698013217990444072A2594CAF80010CAF80400249200F387820AF1080AA7E7079BDF073FF59FAB0123072D2594CAF800602495CAF804307FF703
:402F8000F1AE23AA08990A9802F010FE00287FF4B5AA0DF1C00A259C249DE5E623AA08990A9802F003FE00287FF4A8AA0DF1C00A259C249DFFF786BB23AA08990A9802F0E0
:402FC000F5FD00287FF49AAA0DF1C00A259C249DFFF787BB4646DDF8348001350F9B3444072D259424958AE848007FF7BBAE23AA08990A9802F0DAFD00287FF47FAA259C74
:40300000249D0DF1C00AAFE623AA08990A9802F0CDFD00287FF472AA0DF1C00A259CFFF7B2B964424FF02D0765EB4505BBF1000F8DF86F70FFF68EAC079B23F08003079332
:4030400088E4079911F0400716D00E98BBF1000F034604888DF86F2003F104034FF00005C0F2A58121F08001079154EA05010E933FF4D0AC1746D4E40E9ABBF1000F134626
:4030800014688DF86F7003F104034FF00005C0F28E81079A0E9322F08002079254EA05027FF4BFACB6E40E9A079B002513F0400F134603F104030CBF146814880E9366E520
:4030C000079BDE060BD4079B5D0608D50E9A136804320E92BDF82C201A80FEF7F8BF0E9A136804320E920B9A1A60FEF7F0BF079B0E9A13F0400F13463FF49FAEB2F900402D
:403100000433E5170E9322462B4611E4079A0E9322F08002079254EA05027FF41BAC52E4146E0000149C22462046159C2346214603F0D4FA002840F0BE82119BBBF1FF3F59
:4031400023F020030D9300F04382472B00F03281079B43F480731093159B1F1E149B0993B7BF3B46002303F100472D230F93119B662B00F01082462B00F0FC800D9B21A8B4
:40318000452B18BF5D461EA908BF0BF10105049003911DA802213B460290099A019500910A9800F0D5FC119B0646672B40F04982079BDA0740F1718274190998394600224A
:4031C000002303F059FA002840F04F81219B9C4206D930215A1C21921970219B9C42F9D89B1B12930D9B472B00F02B81119B652B40F33682119B662B1D9B139300F0F8811B
:40320000139A12998A42C0F2E681079BDB0700F13B8222EAE2730D92672211920F9A002A40F005810993109B934607939DF86F70FFF731B824F00704236814936368159399
:4032400004F108030E93EAE4144601330F9A2C44072B259424938AE824003FF717AE0AF1080A1EE623AA08990A9802F09FFC00287FF444A90DF1C00A259CFFF76AB90E9A85
:40328000B8E5249BB649013301340122072B259424938AE8060060DC0AF1080A2DB9129B1BB9079BD9077FF5BAA8249B16990133179A0C44072B2594CAF80020CAF80410BF
:4032C000249300F3D3810AF1080A6D42002D40F3A080A44A102D0F9240F3D78022461027DDF828B0089C05E00AF1080A103D102D40F3CA8001331032072B25922493CAF87D
:403300000090CAF80470EFDD23AA2146584602F04DFC00287FF4F2A80DF1C00A259A249BE4E74FF0FF30FFF7EFB80E98BBF1000F034604888DF86F2003F104034FF0000514
:40334000C0F2AD8121F08001079154EA05010E9317467FF4FFAAFFF736BB23AA08990A9802F024FC00287FF4C9A80DF1C00A1D9D259C93E721A81EA9049003911DA8032172
:403380000290099A3B46CDF804B000910A9800F0DFFB5D460646119B7419462B7FF40DAF3378302B00F0A5811D9D2C4405E70E93FFF736BBBBF1000F08BF4FF0010BC7E6E5
:4033C000079B08F1010843F02003079398F80030FEF7B0BE23AA08990A9802F0E7FB00287FF48CA80DF1C00A259CFFF7CAB83046FEF792FBAB46034676E423AA08990A98C6
:4034000002F0D4FB00287FF479A8259C249B0DF1C00A129901330C44072B25942493CAF80060CAF804107EF7F8AFFFF7D6B90993109B2D2707938DF86F704FF0000BFEF785
:403440002BBF1D9BD81C2CDB9B452ADB1393D7E623AA08990A9802F0A9FB00287FF44EA80DF1C00A259CFFF7E7B92346B8E623AA08990A9802F09AFB00287FF43FA80DF1F3
:40348000C00A1D9B259C16E5144601330F9A2C44072B259424938AE82400AEDC0AF1080AB7E7119A023A1192013B9DF84420002B1D93B8BF5B428DF87C20B4BF2D222B22DC
:4034C000092B8DF87D2040F3EE800DF18B000446254A82FB0321DA17C2EBA10101EB8102A3EB4202303209290B4604F8012DEFDC21463033DAB201F8012D884240F2588145
:403500000DF17E01234601E013F8012B984201F8012BF9D1431C1B1B0DF17E0213441FAA9B1A129A1993012A13440D9340F3EF800D9B169A134400220D93139223EAE37347
:403540006CE623AA08990A9802F030FB00287EF4D5AF1D9B129A259CD31A0DF1C00AC2E4106E0000146E0000676666665B46062B28BF06230D9323EAE373B3463746139691
:403580000E940993904EFEF786BE0E92FFF748BA0E921F466BE421A81EA9049003911DA803210290099A3B46CDF804B000910A9800F0CEFA5D46064600EB0B04F0E62D2300
:4035C0001F468DF86F30FFF74DBB0793FEF74ABE4FF0060BBCE5169A129B1344139A0D93002A40F39E80672223EAE373119215E6002B40F3AC80BBF1000F71D1079AD107B6
:403600006ED41A4623EAE3730D9207E62BEAEB73CDF834B0099383460E9413909DF86F70FEF739BE079B5F46DB0705D540AE302306F8413DFEF725BECDF834B030AEFEF7BF
:4036400023BE119B472B7FF4B7AD079BDC073FF5A2AE219B9B1B12930D9B472B3FF4F1AE1D9B21E7A0460025FEF766BD23AA08990A9802F09BFA00287EF440AF0DF1C00A9D
:403680001D9D259C249B20E6169A139B134467220D93119223EAE373C0E5219BA0E50E931746FFF7E4BB303330228DF87F308DF87E2020AB33E70799444E21F08001444B29
:4036C0000791119903224FF0000B09924729D8BF1E460D92CDF84CB09DF86F70FEF7DBBD139B169A9D1805EB0B030D9323EAE37394E5099839460022002302F0BDFF0028EA
:403700007FF452AEC5F101051D952C4455E5079B13F001037FF40CAF13930D9B23EAE3737CE5139B0D9AC3F101031A4413460D9259E70E9898F8013005680430002D0E909F
:40374000A046BEF6F7AC4FF0FF35FEF7F3BCBBF1000F02D1079BDA0707D5169B5D1C05EB0B030D9323EAE37358E501230D9355E58DF86F10FFF736B98DF86F10FFF709B9FD
:403780008DF86F10FFF7C1B88DF86F10FFF7C4B98DF86F10FFF798B98DF86F10FFF72FBA8DF86F10FFF7E5B98DF86F10FFF776B90DF17E03B3E68DF86F10FFF7B6BA8DF829
:4037C0006F10FFF702BB00BF086E0000DC6D0000D86D0000F0B50C468989ADF26C4D656E21F00201666AADF80C10E169E789199500250791099606951AAE4FF480656946FD
:403800000096049602950595ADF80E700646FEF71DFC051E07DB30466946FDF74FFA002818BF4FF0FF35BDF80C305B0603D5A38943F04003A38128460DF26C4DF0BD00BF4F
:40384000F8B50E461446074610B1836B002B4AD0B4F90C20A36991B20807A36038D52369002B35D08904F5B215D522686169D31A8B421CDA0133A168501C0139A160206023
:40388000167062699A421AD0A389DB0701D50A2D15D02846F8BD616E42F4005221F40051A281226861666169D31A8B42E2DB21463846FDF703FA40B922680123DBE72146B6
:4038C0003846FDF7FBF90028E3D04FF0FF30F8BD2146384600F020F80028F6D1B4F90C20236991B2BEE7FDF78FFAB1E770B50D46084C114606461A46284600232360FCF750
:4039000081FE431C00D070BD2368002BFBD0336070BD00BF448BFF1F38B5304B054618680C4610B1836B002B38D0B4F90C2093B218070CD52069A8B113F001021ED0636998
:4039400000225B42A361A260F0B1002038BDD9063BD5580725D4206942F00803A3819BB20028E9D103F42072B2F5007FE4D02846214601F041FAA3892069DDE7990758BFD8
:403980006269A2600028E0D1B4F90C301A06DDD543F04003A3814FF0FF3038BDFDF734FAC3E7216B51B104F14003994204D02846FDF782FAB4F90C2000232363206900235C
:4039C00022F0240284E80900C6E742F0400209232B604FF0FF30A28138BD00BF1085FF1F024B13B1024800F005B8704700000000214A0000002301461A46184602F0E0B86E
:403A000038B5074C002305460846236003F034F8431C00D038BD2368002BFBD02B6038BD448BFF1F2DE9F04F03690F6983B09F4200F38980013F01F1140600F1140A56F8E4
:403A400027305AF827200133B2FBF3F8BB00009306EB030953440193B8F1000F3BD000231C46B446D6465CF804BBDEF800501FFA8BF208FB02324FEA1B4B130C08FB0B33B1
:403A800092B2A41A1FFA83FBAAB22244CBEB154404EB224492B242EA0442E1454EF8042B4FEA24444FEA1343DDD2009B5AF803308BB9019C231F9A450CD254F8043C4BB987
:403AC000A4F1080302E01A68043B1AB99A4507F1FF37F8D30761044601F0BCFC00282EDB00235546194608F1010856F8042B2B6890B2081A120C99B2C2EB1343421803EB05
:403B0000224392B242EA0342B14545F8042B4FEA2341EAD25AF827200AEB87037AB91A1F92450BD253F8042C42B9083B02E01A68043B1AB99A4507F1FF37F8D32761404663
:403B400003B0BDE8F08F002003B0BDE8F08F00BF2DE9F04F016C99B0814692469B46259C49B1426C012393408B604A6001F08CFA0023C9F84030BBF1000FD84633DB002363
:403B80002360A34B1A4608EA0303934214D0002200235046594602F06FFD054648B3249A01231360269B002B00F0C58099481860013819B0BDE8F08F42F20F73249A136089
:403BC000BAF1000F00F0A2809348269B002BF0D0C378002B00F0B18000F10803269A136019B0BDE8F08F01232BF000482360C346C7E716AA17AB0192009352465B4648469F
:403C000001F0DCFC5FEA1854099040F08880169D179C2C4404F23243202B40F38A82C3F1400304F2124008FA03F82AFA00F040EA080002F043FA0123013CA1F1F8710F93BB
:403C40000022764B02F0FCF86BA3D3E9002302F0ABFA6BA3D3E9002302F0F4F8064620460F4602F03BFA68A3D3E9002302F09CFA02460B463046394602F0E4F806460F468F
:403C800002F042FD0022039000233046394602F0FDFC002840F02982039E162E00F222825F49524601EBC6015B46D1E9000102F00BFD002800F04282731E039300230D938E
:403CC0002C1B631E049300F12B8200230693039B002BC0F21C82049A0C9311461944002304910B93229B092B29D8052B40F35286043B22930025229B023B032B00F22F8696
:403D0000DFE813F02703200232035304424B454AC8F31300002814BF1846104655E7CBF3130343F07F510F955046A4F2FF3441F44011169D84E73C483BE7C31C4EE70021B3
:403D4000C9F844104846229101F076F94FF0FF33229A07930E93012308902392C9F840000A93179B002BC0F2CA80039A0E2A00F3C6802B4B03EBC20318CBCDE90434239B77
:403D8000002BC0F2FC8256465F46DDE904AB304652465B46394602F031FB02F0B5FC044602F09CF952465B4602F0FEF902460B463046394602F044F8079E089F04F13005DE
:403DC000012E3D7002460B4607F101055ED00022164B02F0E9F90022002306460F4602F04BFC002878D1CDF81890DDF81CA0DDF820B0DDE9048928E061436F63A787D23F88
:403E0000B3C8608B288AC63FFB799F501344D33F0000F07F116E0000306E00000000F83F406E0000246E0000106E0000000024400022C34B02F0B8F90022002306460F46FB
:403E400002F01AFC002840F0B38342464B463046394602F0D3FA02F057FC044602F03EF942464B4602F0A0F902460B463046394601F0E6FF04F1300605F8016BCBEB0506CA
:403E8000564502460B46D3D1DDF818901046194601F0D8FF06460F4602460B46DDE9040102F0F4FB40B9DDE9040132463B4602F0E3FB88B1E3070FD515F8014C6B1E089A31
:403EC00004E09A4200F02C8413F8014D392C03F10105F6D001341C700999484601F0D4F80022039B2A70249A01331360269B002B00F0A88308981D6019B0BDE8F08F0A9AC2
:403F0000002A00F01281229A012A40F35A82079B0B9A5F1EBA42C0F29883D71B079B002BC0F28C84069D079B069A01211A440692049A48461A44049201F03EF9064665B129
:403F4000049900290B4608DDA942A8BF2B46069AED1AD21ACB1A069204930B9B002B40F3FD820A9A002A00F00382002F00F0008231463A46484601F0C7F9DDF8248001467E
:403F800042460646484601F021F941460446484601F07AF80B9BDB1B0B9340F0E8810121484601F009F90C9B8046002B00F01B8201461A46484601F0A7F9229B8046012BC2
:403FC00040F3F9820027D8F8103008EB8303186901F0A4F8C0F12000049A104410F01F0000F0F881C0F12003042B40F3CB84069BC0F11C00034406931346034405440493B7
:40400000069B002B05DD21461A46484601F0CCF90446049B002B05DD41461A46484601F0C3F980460D9B002B40F07D82079B002B40F396820A9B002B40F0F681DDF820A0C3
:40404000079F554604E02146484601F027F8044641462046FFF7E6FC303005F8010BCAEB0503BB424FF00A024FF00003EBDB089B079A8246012AACBF9B1801331D464FF066
:40408000000B21460122484601F08EF94146099001F0E0F9002840F30E8315F8012C6B1E089904E08B4200F0798213F8012D392A03F10105F6D001321A704146484600F071
:4040C000E3FF002E3FF408AFBBF1000F05D0B34503D05946484600F0D7FF3146484600F0D3FFF9E601230D93EAE5DDF80C80404601F0F4FF02460B463046394602F0BCFA3E
:4041000000287FF4C9AD08F1FF330393C4E5069A039BD21A5B420B93002306920C93E1E55B42069300230493D1E50B9F069D0A9E05E7C3F120080AFA08F07AE50D90BFE580
:404140000000244000230A93039B239A13440E930133002B079340F38582079C26460021172EC9F844100BD9012204235B0003F11400B042114602F10102F7D9C9F8441056
:40418000484600F059FF0E2C0890C9F840003FF6E8AD002D3FF4E5AD5746D8460399CDE91078002940F39382924B01F00F020E1103EBC203F006D3E9004540F14E828E4B12
:4041C0005046D3E90823594602F018F982468B4606F00F064FF0030886B1874FF10709D5D7E900232046294601F0DEFF04460D4608F10108761007F10807EFD122462B4684
:404200005046594602F0FAF806460F460D9B43B100227A4B3046394602F038FA002840F02383404601F05AFF32463B4601F0BCFF734B002201F006FE079B0446A1F150759D
:40424000002B00F0E181039B1393079B12930A9B002B00F09882129A664B002003EBC20353E90223674902F0C9F822462B4601F0E7FD82468B463046394602F045FA0446B1
:4042800001F02CFF02460B463046394601F0D8FD3034089DE4B206460F462C7002460B4650465946013502F00FFA00284ED132463B460020514901F0C3FD02460B465046D9
:4042C000594602F001FA002840F00E83129A012A40F3B481129B089A134498460FE032463B460020454901F0ABFD52465B4602F0CDF9002840F0F882454500F09F81504664
:4043000059460022404B01F04FFF00223E4B82468B463046394601F047FF0F46064602F0F3F9044601F0DAFE02460B463046394601F086FD3034E4B205F8014B52465B4672
:4043400006460F4602F0A2F90028C8D0139B0393C2E500230A93239B002B40F388811E461C460E930793FAE601230A93F3E709940B9A0999484600F0C7FF04460FE6079BFA
:40438000002B3FF700AD40F0D982DDE9040100221E4B01F009FF52465B4602F08BF9DDF81C804646002800F0F180239B089DDB4303934146484600F067FE002E3FF48CADC5
:4043C0008BE60F9A002A00F0418203F233430B9F069DA9E51C20069B054403440693049B034404930CE6229B012B40F381820C9F0120F1E5406E0000086F00000000F03FF6
:4044000000001C400000E03F0000244000001440314600230A22484600F040FE0E9B0646002B40F397820793002D05DD31462A46484600F0B9FF0646002F40F07B81069652
:40444000079B089A013BD318099317460AF00103C246DDF818B00A9351462046FFF7E2FA31460546204600F0F5FF5A4604905146484601F00FF8C268804605F13003002A29
:4044800049D101462046079300F0E4FF41460690484600F0F9FD069A079B2AB9229919B90A99002900F0368204990029C0F2E48005D1229919B90A99002900F0DD80002A8F
:4044C00000F34C81099A07F1010897423B70454600F05381214600230A22484600F0DEFD5E45044631464FF000034FF00A0248460BD000F0D3FD5946064600230A22484694
:4045000000F0CCFD47468346A6E700F0C7FD474606468346A0E701464846069300F0B4FD0122069BC0E74146204600F093FF0028BFF67CAD2146039C0023013C0A224846F3
:40454000039400F0ABFD0A9B0446002B7FF460AF0E9B002B40F3F68107936FE5099C1EE5229B022B7FF766AD079B002B40F07A8141460522484600F091FD014680462046C4
:4045800000F068FF002809947FF70FAF039A08993123013203920B704D1C0AE7039A312301320392089A137087E501230A93CBE5DDF8189090E4BAF1000F7FF403ADCBF335
:4045C0001303002B40F040812BF000473F0D3F0537B1069B012701330693049B013304930C9B0120002B3FF4F7ACECE4404601F075FD32463B4601F0D7FD0022BF4B01F052
:4046000021FC0446A1F15075304639460022BC4B01F016FC22462B4606460F4602F054F88046002840F00681224605F100433046394602F02BF808B14646B6E6DDE910AB31
:40464000FFF78FBB0898FFF7B4BA0B9B0C9AFB1A1A440B970C92002760E4DDE910AB4FF00208B9E51C460021C9F8441088E5012423940E940794F6E7002AD046CDF818B05C
:404680009A4611DD21460122484600F08DFE4146044600F0DFFE002840F34981BAF1390F00F0078105F1310AB34687F800A07D1C069E099401E504D11AF0010F01D0ECE4D2
:4046C000154615F8013C6A1E302BF9D0F5E4039B5C42002C00F0C180DDE91001894B04F00F0203EBC203D3E9002301F05DFD241106460F4600F02B81834D4FF00208E207F6
:4047000009D5D5E900233046394601F04DFD06460F4608F10108641005F10805EFD175E5089930220A70039A15F8014C01320392FFF7D0BB7168484600F07EFC05463369F1
:4047400006F10C019A1C92000C30FCF799FF29460122484600F028FE069071E6392BCDF818B0D04600F0A58003F1010AB34687F800A07D1C069E09949FE45A46D046B346C4
:404780009A4616467DE4129B5E4903F1FF3A01EBCA012246D1E900012B4601F005FDCDE914013946304601F0AFFF044601F096FC0B4602463946304601F042FB129B0F46B3
:4047C00008993034012B06460C7001F101051FD0129B089AA84613449B4600224B4B3046394601F0E1FC0F46064601F08DFF044601F074FC02460B463046394601F020FB86
:40480000303408F8014BC34506460F46E5D1554400223F4BDDE9140101F014FB32463B4601F034FF00284CD0139B039315F8014CFFF744BB4FF000084646A7E6069B079AB3
:404840009D1A0023FFF770BB0027C9E6169B0B9FC3F13603069DFFF767BBDDE910674FF00208D3E40994A0E5079B002B3FF4BEAE0E9B002B7FF7E2AE0022244B3046394639
:4048800001F092FC06460F4608F1010001F026FC32463B4601F088FC0022184B01F0D2FA039A0E9B013A04461392A1F150751293CDE43922B3460994069E3A707D1CFFF730
:4048C000EEBBDDE914230020114901F0B9FA32463B4601F0F9FE08B9B0E6154615F8013C6A1E302BF9D031E5139B0393FFF7E6BABAF1000F7FF47BAD61E600BF00001C40C4
:4049000000001440406E0000086F0000000024400000E03F392BCDF818B0D046DDF810B09A46C6D0BBF1000F3FF7BCAEBCE67FF4BBAE1AF0010F3FF4B7AEAFE64FF0000802
:40494000464632E5229B022B21DC0E9B04E64FF002085BE4229B022B19DC0E9B63E50024C9F844402146484600F066FB4FF0FF3307930E93012308902394C9F840000A9356
:40498000FFF7EFB93FF43CABC0F13C0023E50E9B0793E9E50125FFF7AEB900BF00293DD070B505460C4608B1836B7BB3B4F90C300BB9002070BD21462846FCF7DBF8E36A48
:4049C000064633B1E169284698470028B8BF4FF0FF36A3891B061CD4216B41B104F14003994202D02846FCF767FA00232363616C21B12846FCF760FA00236364FCF70AFA97
:404A00000023A381FCF708FA304670BDFCF7FCF9CCE721692846FCF74FFADDE70020704738B5074D074C2C1BA41005D0013C55F8043D9847002CF9D1BDE8384002F08ABAD6
:404A4000646F0000606F00009368002B00F0AB802DE9F04F8B8985B00C4619070290164628D5226932B303F002081FFA88F0356878B34FF00009C846DFF8D0A2B8F1000F3B
:404A800000F08B80D04543464A4628BF5346E1690298676AB847002840F3A580B36881441B1AC0EB0808B360002BE7D1002005B0BDE8F08F21460298FEF72EFF002840F0DF
:404AC0003C81A389356803F002081FFA88F00028CFD113F0010940F090804F460196002F56D09A05D4F808805FD54745C246C0F0BF8013F4906F00F0BD8062692068216952
:404B000002EB4208C1EB000A08EBD8780AF101004FEA680838444045424684BF804642465B0540F1F28011460298FCF7FDFA8346002800F0058152462169FCF7A1FDA38962
:404B400023F4906343F08003A381CAEB08030BEB0A00C4F81480BA46B846C4F810B02060A3605246494600F003FAA0682368C8EB0000A060384653442360019A81449368F7
:404B80003F1A1B1A9360002B90D0A389002FA8D1D5F800906F680835A1E7D5F80090D5F8048008356AE70020704720682369984203D86269974280F08380B84528BFB84647
:404BC0004946424600F0D4F9A3682268C8EB03034244A3602260002B48D121460298FCF76DF8002842D0B4F90C3043F040034FF0FF30A38105B0BDE8F08F80468246814692
:404C00000190B9F1000F29D0019B002B4BD0C845C34628BFCB46206823695F469842626903D9A36813449B455CDC934524DB1346676A5246E1690298B847071ED3DDB8EB99
:404C4000070827D0B368BA44DB1BC7EB0909B360002B3FF42BAFB9F1000FD5D10023D5F800A0D5F8049001930835CAE7404684E7B846BA46206874E75A46514600F078F9D4
:404C8000A2682368CBEB02025B44B8EB0708A2602360D7D121460298FCF710F80028A2D1CDF80480CEE74A460A21504600F0E8F800283DD001300123CAEB00080193A6E709
:404CC0006FF00043BB4228BF3B4693FBF2F3E16902FB03F302984A46666AB04700283FF74CAF80E71A465146039300F041F92268039B21461A4422600298FBF7DFFF039B1E
:404D000000287FF470AF1F4699E7029800F0C0FC834600287FF419AF029D21692846FCF7CBF8B4F90C300C2223F080032A605CE7012309F10108019369E74FF0FF30B6E686
:404D4000029A0C231360B4F90C304EE700FCFF7F004870475C89FF1F014B1868704700BF7C89FF1F004870472489FF1F70B50D46084C114606461A4628460023236001F058
:404D800093FE431C00D070BD2368002BFBD0336070BD00BF448BFF1F70B50E46B1F90E1090B0002914461D4614DB01AA00F0E6FF00280FDB029A4FF4806302F47042A2F530
:404DC0000052B2FA82F24FF4006052092A60236010B070BDB289002002F0800292B228601AB14023236010B070BD10464FF48063236010B070BD00BF8A890B46920706D58D
:404E000001F1430201211A601A6159617047F0B583B001AB6A460C460546FFF7BDFF009906462846FCF780F9B4F90C30D0B19DE80600124F43F08003EF63A38120602061EE
:404E400061611AB93343A38103B0F0BD2846B4F90E1000F0A7FFB4F90C300028F2D043F00103EFE79A05EFD404F1430243F002030121A381226022616161E5E70D0D00002D
:404E8000830770B4CDB23DD0531E02B30278AA421ED0421C04E0D3B10478013BAC4217D012F0030F104602F10102F4D1032B11D853B30278AA420BD00344421C02E0017868
:404EC000A94205D09342104602F10102F7D1002070BC704704460E0206F47F462E4346EA0646226820467240A2F1013121EA020212F0803F04F10404DBD1043B032B20464D
:404F0000EFD8D5E71346D1E71846E1E7032A70B426D940EA01039B0711D004780D78AC4222D10244431C05E013F8014B11F8015FAC4219D19342F7D1002070BC70470C46C0
:404F400003461E6825681846AE42214603F1040304F10404E1D1043A032A18462146F0D8002ADAD11046E8E7601B70BC704700BF8842F0B50DD98B1898420AD28118002AF6
:404F800051D09A1A13F8014D934201F8014DF9D1F0BD0F2A48D941EA00039B0746D1154600F1100401F1100353F8106C103D44F8106C53F80C6C0F2D44F80C6C53F8086C4C
:404FC00004F1100444F8186C53F8046C03F1100344F8146CE8D8A2F1100323F00F0302F00F0E1033BEF1030F1944034421D90E4674461D1F56F8047B043C032C45F8047FE8
:40500000F8D8AEF1040424F0030404342344214402F0030262B1013B0A4411F8014B8A4203F8014FF9D1F0BD0346F3E70346F2E7F0BD7246EEE700BFC26C70B505460C4635
:4050400052B152F824308BB1196842F82410002218461A61DA6070BD2122042100F002FEE86402460028ECD1002070BD012101FA04F6721D2846920000F0F4FD03460028EC
:40508000F2D044608660E2E731B1C36C4A6853F82200086043F82210704700BFF0B50C4605460E6983B001F1140E0027DEF80000013781B202FB0131000C0B0C02FB003376
:4050C00089B201EB0341BE424EF8041B4FEA1343ECDC3BB1A268964207DA04EB8602013653612661204603B0F0BD6168284601310193FFF7A1FF0746226904F10C0102328A
:4051000092000C30FCF7BCFAEA6C6168019B52F82100206042F821403C46DEE7030C1B04B3B90004102310F07F4F04BF0002083310F0704F04BF0001043310F0404F04BFC5
:4051400080000233002807DB420003D4202070470023E8E7581C704718467047036813F0070207D0D90720D49A0720D49B0803600220704799B209B91B0C102213F0FF0F21
:4051800004BF1B0A0832190704BF1B090432990704BF9B080232D90704D45B0801D1202070470132036010467047002070475B0803600120704700BF10B50C460121FFF76C
:4051C0003BFF01224461026110BD00BF2DE9F04F0D69166985B0B5420C46914604DA2A464C46354689461646A36805EB060861689845C8BF0131FFF71FFF00F1140A0AEB19
:40520000880BDA45019005D25346002143F8041B9B45FBD809F1140909EB860304F11402994502EB850C59D2CDF808B0CDF80C809B46904659F8047B1FFA87FEBEF1000FB6
:405240001FD047465646002100E00646304657F8045B3468ABB2A2B20EFB03222D0C240C0EFB0544531804EB13419AB242EA0142BC454FEA114140F8042BE6D8716059F833
:40528000047C3F0C22D0DAF80030002255461E464046964600E025462C460288360C07FB026699B206EB0E0241EA024344F8043B50F8041B6E68090CB3B207FB01318445CE
:4052C00001EB12434FEA134EE5D86B60CB450AF1040AAFD8DDF808B0DDF80C80B8F1000F0BDD5BF8043CABF1040B1BB105E05BF8043D13B9B8F10108F9D10198C0F8108071
:4053000005B0BDE8F08F00BF12F003032DE9F041144607462ED10E46A4101CD0BD6C95B3E3074FF0000806D4641014D02868A8B10546E307F8D52A4631463846FFF746FF8D
:40534000B6B17268FB6C641053F82210316043F822600646EAD13046BDE8F0812A4629463846FFF733FF2860C0F800800546E0E70646D9E70B4A013B52F823200023FFF719
:405380008DFE0646C8E701213846FFF755FE40F2712101220023416102610546B8640360BEE700BF306F00002DE9F84F0B69541104EB03088B6808F101059D420E46914676
:4053C0008346496804DD5B009D4201F10101FADC5846FFF731FE002C00F1140237DD02EB8403002142F8041B9342FBD1346906F1140119F01F0901EB840E20D0C9F1200C87
:4054000000240F681A4607FA09FA4AEA040443F8044B51F8044B8E4524FA0CF4F1D854600CB108F10205DBF84C307268013D53F822100561316043F82260BDE8F88F043BE1
:4054400051F8042B8E4543F8042FF9D8EBE71346CCE700BF02690B69D21A12D19B0014301431194410B4034401E098420BD253F8044D51F8042D9442F7D007D3012010BCB9
:40548000704710467047002010BC70474FF0FF30F5E700BF2DE9F0470B690C46116990465B1A002B18D1890004F1140602F114077318394401E09E4269D253F8045D51F8F1
:4054C000042D9542F7D06BD22346B24644463E4698464FF0010906E066DB04F1140602F1140A4FF000096168FFF7A6FD5546D4F810E0D8F810303746C0F80C900AEB830C5D
:4055000006EB8E0600F114044FF0000957F8042B55F8041B1FFA82F808EB09031FFA81F8090CC8EB0303C1EB124202EB23429BB243EA0243AC4544F8043B4FEA2249E5D8DB
:40554000BE4218D9A046BC465CF8042B95B205EB09010B1403EB12428BB243EA0243664548F8043B4FEA2249EED8FF43374427F0030704373C44043C2BB954F8043D0EF1A1
:40558000FF3E002BF9D0C0F810E0BDE8F0870021FFF752FD0122002302614361BDE8F087BA464FF000099EE7234604F1140A08F1140644464FF00109984694E7F0B50121D8
:4055C00083B01C46C3F30A551646FFF735FDC4F3130407460DB144F48014019406B302A840F8086DFFF7BAFD002830D19DE80C007A61002B0CBF01210221BB613961D5B972
:40560000089A07EB8103A0F2324010601869FFF785FD099BC0EB41101860384603B0F0BD01A8FFF79BFD019B0122114620303A617B61002DE4D0A5F23343089A0344136091
:40564000099BC0F135001860384603B0F0BD019BC0F12001009A03FA01F10A43C34001937A61C6E770B50D46084C114606461A46284600232360FAF7DBFF431C00D070BDDD
:405680002368002BFBD0336070BD00BF448BFF1F2DE9F04F174683B0002900F08F800D46814607F10B04FCF7AFF855F804EC162C2EF00306A5F108083CD810221446A74260
:4056C0003DD8964242DAC64B08EB060099688842416800F0D78021F0010303445B68DB074CD51EF0010F00F09D8039464846FBF71BFD074600283AD055F8043CA0F10802D1
:4057000023F0010343449A4200F03E81321F242A00F22B81132A00F2FF8003462A46116819605168596092689A6029464846FBF7C3FB1CE024F00704002C2246BFDA0C2320
:405740000020C9F8003003B0BDE8F08F2F46331B0F2BD8F804201DD802F00102324308EB0601C8F804204B6843F001034B604846FCF74CF8384603B0BDE8F08F21F003014F
:405780003144914220DBC36882682F46D3600E469A60DCE702F0010208EB0401144343F00102C8F804400B444A605A68083142F001025A604846FBF77FFBD8E7114603B0B4
:4057C000BDE8F04FFBF7B0BC1EF0010F8DD155F8083CC3EB080ADAF8043023F0030C01EB0C0E964526DB5746C3688168321FCB60996057F8081FDAF80C30242ACB60996074
:4058000000F2C980132A40F292802B681B2ACAF808306B68CAF80C3000F2CD8008350AF1100385E055F8083CC3EB080ADAF8043023F0030C06EB0C039342FFF656AF574635
:40584000DAF80C1057F8080F321F242AC160886000F2AA80132A40F2A58029681B2ACAF808106968CAF80C1000F2BC8008350AF1100229681E4611606968D0465160AB6894
:40588000936064E721F0030B04F11000B344834557DA1EF0010F7FF428AF55F8081CC1EB080ADAF8041021F0030CE3445845C1DC5746DAF80C1057F8080F321F242AC160E7
:4058C000886000F2B180132A40F2A28029681B2ACAF808106968CAF80C1000F2AC8008350AF110022968116069685160A9689160C4EB0B020AEB040142F0010299604A6031
:40590000DAF80430484603F001031C43CAF80440FBF77CFF38462EE72B681B2A03606B68436026D800F1080305F10802F7E63B462A6876461A606A68D0465A60AA689A60F8
:4059400005E7C4EB0B0B08EB04014BF0010299604A6055F8043C484603F001031C4345F8044CFBF753FF284605E72946FFF700FBDBE6AB68242A8360EB68C36027D000F13E
:40598000100305F11002CAE650F8043C2F4623F003031E44DBE6294638467646D046FFF7E7FAD4E63A4664E7294638461E46D046FFF7DEFACBE6AB68242ACAF81030EB682C
:4059C000CAF814301AD010350AF11803B0E72A6900F118030261696905F1180241619EE61485FF1FA968242ACAF81010E968CAF814100FD010350AF118023AE72A690AF1A4
:405A00002003CAF818206A691835CAF81C208FE73A4667E729690AF12002CAF8181069691835CAF81C1024E7294638460193FFF79FFA019B5CE7A968242ACAF81010E968B5
:405A4000CAF8141003D010350AF118024AE729690AF12002CAF8181069691835CAF81C1040E700BF70B411F0FF0434D085070FD00378002B5AD09C422BD0431C05E013F8C7
:405A8000012B002A4FD0944223D09A071846F6D10E0206F47F462643036846EA064601E050F8043F86EA0305A5F10132A3F1013122EA050221EA0303134313F0803FEFD055
:405AC000037823B932E010F8013F002B2ED09C42F9D170BC704784070BD00378002BF8D0431C03E002780133002AF2D099071846F8D10268A2F1013323EA020313F0803FC5
:405B000008D150F8042FA2F1013323EA020313F0803FF6D00378002BDBD010F8013F002BFBD170BC7047104670BC7047184670BC704700BF4B6E2DE9F0479C0492462CD585
:405B4000936812683BB30F46804602F1080919E96000B60817D0043D002401E0A64210D03A4655F8041F404600F0F6F8431C04F10104F3D10023CAF80830CAF80430BDE865
:405B8000F087DAF80830A3EB8603CAF8083009F10809002BDBD10020ECE7FEF755FF0023CAF80830CAF80430BDE8F08793680BB1FFF7C0BF10B41846536010BC704700BFC3
:405BC0002DE9F047254C064625688846D5F8484192469946C4B360681F2817DC411C76B104EB8003C3F888A0D4F88851012282401543022EC4F88851C3F808911ED0831C59
:405C00006160002044F82380BDE8F087144B03B34FF4C870AFF300800446D0B1D5F84831002784E888003846C5F848410121C4F88871C4F88C71002EE1D0D1E7D4F88C3136
:405C40001A43C4F88C21DAE705F5A674C5F84841C1E74FF0FF30BDE8F08700BFBC6D00000000000010B502FB01F1FBF75DFA0446D8B150F8042C22F00302043A242A18D84E
:405C8000132A14D900231B2A0360436016D9242A8360C36011BF00F110020361436100F118020023136053609360204610BD0246F7E70021FBF75AFD204610BD00F10802F6
:405CC000EFE700BF2DE9F04182B006460F461446FFF742F8012832D004F15C033A4601A9304600F071F8B0F1FF3F804620D070B39DF80410002508E023685A1C2260197079
:405D00000135454523D201AB595DA368013B002BA360F1DAA269934201DB0A29ECD122463046FDF78DFD431CEAD102B0BDE8F081A38943F04003A38102B0BDE8F0817B1EFB
:405D4000FE2BC9D8F9B280468DF80410D2E7384602B0BDE8F08100BFB2F90C3013F4005F0AD110B4546E43F4005344F400545466938110BCFFF7A6BFFFF7A4BF38B50B4641
:405D8000074C0546114618460023236000F07CFE431C00D038BD2368002BFBD02B6038BD448BFF1F38B5074C002305460846236000F072FE431C00D038BD2368002BFBD0EA
:405DC0002B6038BD448BFF1F2DE9F041054686B01E460C46A1B1104B1746D3F80080FEF7B7FF009603463A4621462846C047431C03D100228A2332602B6006B0BDE8F08192
:405E0000054B1F68FEF7A4FF00960346224603A92846B847EBE700BF8089FF1F21B1FF2A04D80A7001207047084670478A2303604FF0FF30704700BF81F0004102E000BF66
:405E400083F0004330B54FEA41044FEA430594EA050F08BF90EA020F1FBF54EA000C55EA020C7FEA645C7FEA655C00F0E2804FEA5454D4EB5555B8BF6D420CDD2C4480EA57
:405E8000020281EA030382EA000083EA010180EA020281EA0303362D88BF30BD11F0004F4FEA01314FF4801C4CEA113102D0404261EB410113F0004F4FEA03334CEA1333EB
:405EC00002D0524263EB430394EA050F00F0A780A4F10104D5F1200E0DDB02FA0EFC22FA05F2801841F1000103FA0EF2801843FA05F359410EE0A5F120050EF1200E012A40
:405F000003FA0EFC28BF4CF0020C43FA05F3C01851EBE37101F0004507D54FF0000EDCF1000C7EEB00006EEB0101B1F5801F1BD3B1F5001F0CD349085FEA30004FEA3C0C6E
:405F400004F101044FEA445212F5800F80F09A80BCF1004F08BF5FEA500C50F1000041EB045141EA050130BD5FEA4C0C404141EB010111F4801FA4F10104E9D191F0000F18
:405F800004BF01460020B1FA81F308BF2033A3F10B03B3F120020CDA0C3208DD02F1140CC2F10C0201FA0CF021FA02F10CE002F11402D8BFC2F1200C01FA02F120FA0CFCB9
:405FC000DCBF41EA0C019040E41AA2BF01EB0451294330BD6FEA04041F3C1CDA0C340EDC04F11404C4F1200220FA04F001FA02F340EA030021FA04F345EA030130BDC4F133
:406000000C04C4F1200220FA02F001FA04F340EA0300294630BD21FA04F0294630BD94F0000F83F4801306BF81F480110134013D4EE77FEA645C18BF7FEA655C29D094EAD6
:40604000050F08BF90EA020F05D054EA000C04BF1946104630BD91EA030F1EBF0021002030BD5FEA545C05D14000494128BF41F0004130BD14F580043CBF01F5801130BDC3
:4060800001F0004545F0FE4141F470014FF0000030BD7FEA645C1ABF194610467FEA655C1CBF0B46024650EA013406BF52EA033591EA030F41F4002130BD00BF90F0000F49
:4060C00004BF0021704730B54FF4806404F132044FF000054FF0000150E700BF90F0000F04BF0021704730B54FF4806404F1320410F0004548BF40424FF000013EE700BF01
:4061000042004FEAE2014FEA31014FEA02701FBF12F07F4393F07F4F81F06051704792F0000F14BF93F07F4F704730B54FF4607401F0004521F0004120E700BF50EA01022C
:4061400008BF704730B54FF000050AE050EA010208BF704730B511F0004502D5404261EB41014FF4806404F132045FEA915C3FF4DCAE4FF003025FEADC0C18BF03325FEAB2
:40618000DC0C18BF033202EBDC02C2F1200300FA03FC20FA02F001FA03FE40EA0E0021FA02F11444C1E600BF70B54FF0FF0C4CF4E06C1CEA11541DBF1CEA135594EA0C0FFC
:4061C00095EA0C0F00F0DEF82C4481EA030621EA4C5123EA4C5350EA013518BF52EA033541F4801143F4801338D0A0FB02CE4FF00005E1FB02E506F00042E0FB03E54FF008
:406200000006E1FB03569CF0000F18BF4EF0010EA4F1FF04B6F5007F64F5407404D25FEA4E0E6D4146EB060642EAC62141EA55514FEAC52040EA5E504FEACE2EB4F1FD0C72
:4062400088BFBCF5E06F1ED8BEF1004F08BF5FEA500E50F1000041EB045170BD06F0004646EA010140EA020081EA0301B4EB5C04C2BFD4EB0C0541EA045170BD41F48011BA
:406280004FF0000E013C00F3AB8014F1360FDEBF002001F0004170BDC4F10004203C35DA0C341BDC04F11404C4F1200500FA05F320FA04F001FA05F240EA020001F000423D
:4062C00021F0004110EBD37021FA04F642EB06015EEA430E08BF20EAD37070BDC4F10C04C4F1200500FA04F320FA05F001FA04F240EA020001F0004110EBD37041F100018C
:406300005EEA430E08BF20EAD37070BDC4F1200500FA05F24EEA020E20FA04F301FA05F243EA020321FA04F001F0004121FA04F220EA020000EBD3705EEA430E08BF20EA45
:40634000D37070BD94F0000F0FD101F00046400041EB010111F4801F08BF013CF7D041EA060195F0000F18BF704703F00046520043EB030313F4801F08BF013DF7D043EA74
:406380000603704794EA0C0F0CEA135518BF95EA0C0F0CD050EA410618BF52EA4306D1D181EA030101F000414FF0000070BD50EA410606BF1046194652EA430619D094EA66
:4063C0000C0F02D150EA013613D195EA0C0F05D152EA03361CBF104619460AD181EA030101F0004141F0FE4141F470014FF0000070BD41F0FE4141F4780170BD70B54FF038
:40640000FF0C4CF4E06C1CEA11541DBF1CEA135594EA0C0F95EA0C0F00F0A7F8A4EB050481EA030E52EA03354FEA013100F088804FEA03334FF0805545EA131343EA1263E9
:406440004FEA022245EA111545EA10654FEA00260EF000419D4208BF964244F1FD0404F5407402D25B084FEA3202B61A65EB03055B084FEA32024FF480104FF4002CB6EB48
:40648000020E75EB030E22BFB61A754640EA0C005B084FEA3202B6EB020E75EB030E22BFB61A754640EA5C005B084FEA3202B6EB020E75EB030E22BFB61A754640EA9C00B1
:4064C0005B084FEA3202B6EB020E75EB030E22BFB61A754640EADC0055EA060E18D04FEA051545EA16754FEA06164FEAC30343EA52734FEAC2025FEA1C1CC0D111F4801FF7
:406500000BD141EA00014FF000004FF0004CB6E711F4801F04BF01430020B4F1FD0C88BFBCF5E06F3FF6AFAEB5EB030C04BFB6EB020C5FEA500C50F1000041EB045170BDE5
:406540000EF0004E4EEA113114EB5C04C2BFD4EB0C0541EA045170BD41F480114FF0000E013C90E645EA060E8DE60CEA135594EA0C0F08BF95EA0C0F3FF43BAF94EA0C0F6E
:406580000AD150EA01347FF434AF95EA0C0F7FF425AF104619462CE795EA0C0F06D152EA03353FF4FDAE1046194622E750EA410618BF52EA43067FF4C5AE50EA41047FF45C
:4065C0000DAF52EA43057FF4EBAE12E74FF0FF3C06E000BF4FF0010C02E000BF4FF0010C4DF804CD4FEA410C7FEA6C5C4FEA430C18BF7FEA6C5C1BD001B050EA410C0CBFB3
:4066000052EA430C91EA030F02BF90EA020F0020704710F1000F91EA030F58BF994208BF90422CBFD8176FEAE37040F0010070474FEA410C7FEA6C5C02D150EA013C07D1B0
:406640004FEA430C7FEA6C5CD6D152EA033CD3D05DF8040B704700BF8446104662468C461946634600E000BF01B5FFF7B7FF002848BF10F1000F01BD4DF808EDFFF7F4FFFF
:406680000CBF012000205DF808FB00BF4DF808EDFFF7EAFF34BF012000205DF808FB00BF4DF808EDFFF7E0FF94BF012000205DF808FB00BF4DF808EDFFF7CEFF94BF012028
:4066C00000205DF808FB00BF4DF808EDFFF7C4FF34BF012000205DF808FB00BF4FEA410C7FEA6C5C02D150EA013C0AD14FEA430C7FEA6C5C02D152EA033C02D14FF0000030
:4067000070474FF0010070474FEA410212F5001215D211D56FF47873B3EB625212D94FEAC12343F0004343EA505311F0004F23FA02F018BF404270474FF00000704750EABC
:40674000013005D111F0004008BF6FF0004070474FF00000704700BF53B94AB9002908BF00281CBF4FF0FF314FF0FF3000F082B9ADF1080C6DE904CE00F006F8DDF804E074
:40678000DDE9022304B070472DE9F04F8C460C460546099E002B4FD18A4217466BD9B2FA82FEBEF1000F0BD0CEF1200520FA05F501FA0EF345EA030C02FA0EF700FA0EF56B
:4067C000390CBCFBF1F0BAB201FB10C300FB02F84FEA154C4CEA0344A04509D9E41900F1FF3380F02881A04540F2258102383C44C8EB0404B4FBF1F301FB134C03FB02F263
:40680000ACB244EA0C418A4209D9C91903F1FF3480F00F818A4240F20C81023B39448A1A43EA00400021002E63D022FA0EF2002386E80C00BDE8F08F8B4207D9002E56D012
:40684000002186E811000846BDE8F08FB3FA83F1002940F09380A34202D3824200F2FE80851A64EB03039C460120002E41D086E82010BDE8F08F12B90127B7FBF2F7B7FA54
:4068800087FEBEF1000F36D1E41B4FEA17481FFA87F90121B4FBF8F308FB134409FB03F24FEA154C4CEA0444A24207D9E41903F1FF3002D2A24200F2D3800346A41AB4FBA0
:4068C000F8F008FB104809FB00F9ACB244EA0842914507D9D21900F1FF3402D2914500F2BA802046C9EB020240EA03409BE731463046BDE8F08F07FA0EF7CEF1200C24FABA
:406900000CF34FEA1748B3FBF8FA1FFA87F908FB1A3520FA0CFC04FA0EF40AFB09FB4CEA040C4FEA1C4242EA05439B4500FA0EF50AD9DB190AF1FF3280F08B809B4540F24C
:406940008880AAF1020A3B44CBEB0303B3FBF8F008FB103300FB09F41FFA8CFC4CEA03439C4207D9DB1900F1FF326ED29C426CD902383B441C1B40EA0A418BE7C1F1200E4E
:406980008B4022FA0EFC4CEA030C24FA0EF74FEA1C49B7FBF9FA1FFA8CF309FB1A7720FA0EF88C400AFB03F548EA04044FEA144848EA0747BD4202FA01F200FA01FB09D910
:4069C00017EB0C070AF1FF3041D2BD423FD9AAF1020A67447F1BB7FBF9F509FB157705FB03F3A4B244EA0747BB4208D917EB0C0705F1FF3027D2BB4225D9023D674445EA25
:406A00000A40A0FB0289FF1A4F4545464C4614D329D066B3BBEB050367EB040707FA0EFECB40CF404EEA030386E888000021BDE8F08F2346F3E61846DAE6B8EB020569EB1A
:406A40000C040138E5E70546D9E7104692E78246C0E7924678E702383A4443E7084604E7023B3C442AE7C345E7D33C46D1E73146BDE8F08F704700BF024B58221A604FF00B
:406A8000FF307047448BFF1F024B58221A604FF0FF307047448BFF1F024B58221A600020704700BF448BFF1F024B58221A604FF0FF307047448BFF1F00000000CCFCFF7F53
:406AC0000100000000000000204F4E00204F4646000000005B2057504D3A20256C75205D0A0000004F4E00004F46460057504D20000000005B205072696E742057504D203F
:406B00006973202573205D0A00000000494D4D20000000005B20496D6D656469617465206F7574707574206973202573205D0A0057504D000A4D6F727365206465636F64FE
:406B400065722076302E3300410103000000000042030101010000004303010301000000440301010000000045010000000000004601010301000000470303010000000016
:406B8000480101010100000049010100000000004A010303030000004B030103000000004C010301010000004D030300000000004E030100000000004F0303030000000049
:406BC00050010303010000005103030103000000520103010000000053010101000000005403000000000000550101030000000056010101030000005701030300000000CA
:406C0000580301010300000059030103030000005A030301010000003101030303030000320101030303000033010101030300003401010101030000350101010101000003
:406C4000360301010101000037030301010100003803030301010000390303030301000030030303030300000000000000000000005100401000205100405000F0510040AC
:406C8000100000000140001000140140000480180140800300400140000A004C01400002005001402000000000180140500200488000000000202020202020202020282810
:406CC0002828282020202020202020202020202020202020208810101010101010101010101010101004040404040404040404101010101010104141414141410101010142
:406D000001010101010101010101010101010101101010101010424242424242020202020202020202020202020202020202020210101010200000000000000000000000CF
:406D40000000000000000000000000000000000000000000000000000000000000000000000000000000000000000000000000000000000000000000000000000000000013
:406D8000000000000000000000000000000000000000000000000000000000000000000000000000000000000000000000000000000000000000000043000000E880FF1F0A
:406DC00020202020202020202020202020202020494E4600696E66004E414E006E616E003031323334353637383941424344454600000000303132333435363738396162ED
:406E00006364656600000000286E756C6C2900003000000030303030303030303030303030303030496E66696E697479000000004E614E00504F5349580000002E0000007C
:406E4000000000000000F03F000000000000244000000000000059400000000000408F40000000000088C34000000000006AF8400000000080842E4100000000D0126341B1
:406E80000000000084D797410000000065CDCD41000000205FA00242000000E876483742000000A2941A6D42000040E59C30A2420000901EC4BCD64200003426F56B0C43BA
:406EC0000080E03779C3414300A0D8855734764300C84E676DC1AB43003D9160E458E143408CB5781DAF154450EFE2D6E41A4B4492D54D06CFF08044F64AE1C7022DB544E4
:406F0000B49DD9794378EA440080E03779C34143176E05B5B5B89346F5F93FE9034F384D321D30F94877825A3CBF737FDD4F157505000000190000007D000000F8B500BF3F
:406F4000F8BC08BC9E467047E13900004D0000009D090000F8B500BFF8BC08BC9E46704729000000786F0000C880FF1FC0080000C001000000000000000000000101000071
:406F8000488BFF1F0000E02EC05D00001800000000366E01B46C000000000000D483FF1F3C84FF1FA484FF1F0000000000000000000000000000000000000000000000003F
:406FC000000000000000000000000000B86D00000000000000000000000000000000000000000000000000000000000000000000000000000000000000000000000000006C
:407000000000000000000000000000000000000000000000000000000000000000000000000000000000000000000000000000000000000000000000000000000000000050
:4070400001000000000000000E33CDAB34126DE6ECDE05000B00000000000000000000000000000000000000000000000000000000000000000000000000000000000000E3
:4070800000000000000000000000000000000000000000000000000000000000000000000000000000000000000000000000000000000000000000000000000000000000D0
:4070C0000000000000000000000000000000000000000000000000000000000000000000000000000000000000000000000000000000000000000000000000000000000090
:40710000000000000000000000000000000000000000000000000000000000000000000000000000000000000000000000000000000000000000000000000000000000004F
:40714000000000000000000000000000000000000000000000000000000000000000000000000000000000000000000000000000000000000000000000000000000000000F
:4071800000000000000000000000000000000000000000000000000000000000000000000000000000000000000000000000000000000000000000000000000000000000CF
:4071C000000000000000000000000000000000000000000000000000000000000000000000000000000000000000000000000000000000000000000000000000000000008F
:40720000000000000000000000000000000000000000000000000000000000000000000000000000000000000000000000000000000000000000000000000000000000004E
